{
  "_format": "hh-sol-artifact-1",
  "contractName": "PatientRecords",
  "sourceName": "contracts/PatientRecords.sol",
  "abi": [
    {
      "inputs": [],
      "stateMutability": "nonpayable",
      "type": "constructor"
    },
    {
      "anonymous": false,
      "inputs": [
        {
          "indexed": true,
          "internalType": "address",
          "name": "patient",
          "type": "address"
        },
        {
          "indexed": true,
          "internalType": "address",
          "name": "grantee",
          "type": "address"
        },
        {
          "indexed": false,
          "internalType": "bool",
          "name": "access",
          "type": "bool"
        }
      ],
      "name": "AccessChanged",
      "type": "event"
    },
    {
      "anonymous": false,
      "inputs": [
        {
          "indexed": true,
          "internalType": "address",
          "name": "patient",
          "type": "address"
        },
        {
          "indexed": true,
          "internalType": "address",
          "name": "by",
          "type": "address"
        },
        {
          "indexed": false,
          "internalType": "string",
          "name": "dataHash",
          "type": "string"
        }
      ],
      "name": "RecordUploaded",
      "type": "event"
    },
    {
      "anonymous": false,
      "inputs": [
        {
          "indexed": true,
          "internalType": "address",
          "name": "patient",
          "type": "address"
        },
        {
          "indexed": true,
          "internalType": "uint256",
          "name": "recordId",
          "type": "uint256"
        },
        {
          "indexed": true,
          "internalType": "address",
          "name": "by",
          "type": "address"
        }
      ],
      "name": "RecordVerified",
      "type": "event"
    },
    {
      "anonymous": false,
      "inputs": [
        {
          "indexed": true,
          "internalType": "address",
          "name": "user",
          "type": "address"
        },
        {
          "indexed": false,
          "internalType": "uint256",
          "name": "roleId",
          "type": "uint256"
        }
      ],
      "name": "RoleAssigned",
      "type": "event"
    },
    {
      "inputs": [
        {
          "internalType": "address",
          "name": "",
          "type": "address"
        },
        {
          "internalType": "address",
          "name": "",
          "type": "address"
        }
      ],
      "name": "accessControl",
      "outputs": [
        {
          "internalType": "bool",
          "name": "",
          "type": "bool"
        }
      ],
      "stateMutability": "view",
      "type": "function"
    },
    {
      "inputs": [
        {
          "internalType": "address",
          "name": "_user",
          "type": "address"
        },
        {
          "internalType": "uint256",
          "name": "_roleId",
          "type": "uint256"
        }
      ],
      "name": "assignRole",
      "outputs": [],
      "stateMutability": "nonpayable",
      "type": "function"
    },
    {
      "inputs": [
        {
          "internalType": "address",
          "name": "_patient",
          "type": "address"
        },
        {
          "internalType": "uint256",
          "name": "index",
          "type": "uint256"
        }
      ],
      "name": "getRecordAt",
      "outputs": [
        {
          "internalType": "string",
          "name": "",
          "type": "string"
        },
        {
          "internalType": "bool",
          "name": "",
          "type": "bool"
        }
      ],
      "stateMutability": "view",
      "type": "function"
    },
    {
      "inputs": [
        {
          "internalType": "address",
          "name": "_patient",
          "type": "address"
        }
      ],
      "name": "getRecordCount",
      "outputs": [
        {
          "internalType": "uint256",
          "name": "",
          "type": "uint256"
        }
      ],
      "stateMutability": "view",
      "type": "function"
    },
    {
      "inputs": [
        {
          "internalType": "address",
          "name": "_user",
          "type": "address"
        }
      ],
      "name": "getRole",
      "outputs": [
        {
          "internalType": "uint256",
          "name": "",
          "type": "uint256"
        }
      ],
      "stateMutability": "view",
      "type": "function"
    },
    {
      "inputs": [
        {
          "internalType": "address",
          "name": "_requester",
          "type": "address"
        },
        {
          "internalType": "address",
          "name": "_patient",
          "type": "address"
        }
      ],
      "name": "hasAccessTo",
      "outputs": [
        {
          "internalType": "bool",
          "name": "",
          "type": "bool"
        }
      ],
      "stateMutability": "view",
      "type": "function"
    },
    {
      "inputs": [
        {
          "internalType": "address",
          "name": "_patient",
          "type": "address"
        },
        {
          "internalType": "address",
          "name": "_grantee",
          "type": "address"
        },
        {
          "internalType": "bool",
          "name": "_grant",
          "type": "bool"
        }
      ],
      "name": "overrideAccess",
      "outputs": [],
      "stateMutability": "nonpayable",
      "type": "function"
    },
    {
      "inputs": [
        {
          "internalType": "address",
          "name": "",
          "type": "address"
        },
        {
          "internalType": "uint256",
          "name": "",
          "type": "uint256"
        }
      ],
      "name": "records",
      "outputs": [
        {
          "internalType": "string",
          "name": "dataHash",
          "type": "string"
        },
        {
          "internalType": "bool",
          "name": "verified",
          "type": "bool"
        }
      ],
      "stateMutability": "view",
      "type": "function"
    },
    {
      "inputs": [
        {
          "internalType": "address",
          "name": "",
          "type": "address"
        }
      ],
      "name": "roles",
      "outputs": [
        {
          "internalType": "uint256",
          "name": "",
          "type": "uint256"
        }
      ],
      "stateMutability": "view",
      "type": "function"
    },
    {
      "inputs": [
        {
          "internalType": "address",
          "name": "_patient",
          "type": "address"
        },
        {
          "internalType": "string",
          "name": "_dataHash",
          "type": "string"
        }
      ],
      "name": "uploadRecord",
      "outputs": [],
      "stateMutability": "nonpayable",
      "type": "function"
    },
    {
      "inputs": [
        {
          "internalType": "address",
          "name": "_patient",
          "type": "address"
        },
        {
          "internalType": "uint256",
          "name": "index",
          "type": "uint256"
        }
      ],
      "name": "verifyRecord",
      "outputs": [],
      "stateMutability": "nonpayable",
      "type": "function"
    }
  ],
  "bytecode": "0x60806040523480156200001157600080fd5b5060018060003373ffffffffffffffffffffffffffffffffffffffff1673ffffffffffffffffffffffffffffffffffffffff168152602001908152602001600020819055503373ffffffffffffffffffffffffffffffffffffffff167fe2ac27c5c810aead8fa29780fdca1995888a2f0e6b8128a1316e116960b009f860016040516200009f9190620000c8565b60405180910390a2620000e5565b6000819050919050565b620000c281620000ad565b82525050565b6000602082019050620000df6000830184620000b7565b92915050565b61207980620000f56000396000f3fe608060405234801561001057600080fd5b50600436106100a95760003560e01c80634e5e17d0116100715780634e5e17d014610162578063582143081461019257806382a6c0ac146101c257806399374642146101f3578063aa2db50a14610223578063bbb7373914610254576100a9565b8063026e09cd146100ae57806303536d43146100ca57806306414577146100fa5780632e3036c7146101165780634427673314610132575b600080fd5b6100c860048036038101906100c39190611707565b610270565b005b6100e460048036038101906100df9190611763565b61045b565b6040516100f191906117be565b60405180910390f35b610114600480360381019061010f9190611805565b61048a565b005b610130600480360381019061012b919061188e565b6106eb565b005b61014c600480360381019061014791906118ce565b6108c4565b604051610159919061190a565b60405180910390f35b61017c60048036038101906101779190611763565b61097e565b60405161018991906117be565b60405180910390f35b6101ac60048036038101906101a791906118ce565b610bbd565b6040516101b9919061190a565b60405180910390f35b6101dc60048036038101906101d7919061188e565b610e0d565b6040516101ea9291906119a4565b60405180910390f35b61020d600480360381019061020891906118ce565b610ee3565b60405161021a919061190a565b60405180910390f35b61023d6004803603810190610238919061188e565b610efb565b60405161024b9291906119a4565b60405180910390f35b61026e6004803603810190610269919061188e565b6112b7565b005b6002600160003373ffffffffffffffffffffffffffffffffffffffff1673ffffffffffffffffffffffffffffffffffffffff1681526020019081526020016000205414806102fc575060018060003373ffffffffffffffffffffffffffffffffffffffff1673ffffffffffffffffffffffffffffffffffffffff16815260200190815260200160002054145b61033b576040517f08c379a000000000000000000000000000000000000000000000000000000000815260040161033290611a46565b60405180910390fd5b6000808373ffffffffffffffffffffffffffffffffffffffff1673ffffffffffffffffffffffffffffffffffffffff168152602001908152602001600020604051806040016040528083815260200160011515815250908060018154018082558091505060019003906000526020600020906002020160009091909190915060008201518160000190816103cf9190611c72565b5060208201518160010160006101000a81548160ff02191690831515021790555050503373ffffffffffffffffffffffffffffffffffffffff168273ffffffffffffffffffffffffffffffffffffffff167fe6d615acf54736ffca7532772615005f30a970cf028f6ea39b7ed223099535608360405161044f9190611d44565b60405180910390a35050565b60026020528160005260406000206020528060005260406000206000915091509054906101000a900460ff1681565b60018060003373ffffffffffffffffffffffffffffffffffffffff1673ffffffffffffffffffffffffffffffffffffffff168152602001908152602001600020541461050b576040517f08c379a000000000000000000000000000000000000000000000000000000000815260040161050290611dd8565b60405180910390fd5b82600073ffffffffffffffffffffffffffffffffffffffff168173ffffffffffffffffffffffffffffffffffffffff160361057b576040517f08c379a000000000000000000000000000000000000000000000000000000000815260040161057290611e44565b60405180910390fd5b82600073ffffffffffffffffffffffffffffffffffffffff168173ffffffffffffffffffffffffffffffffffffffff16036105eb576040517f08c379a00000000000000000000000000000000000000000000000000000000081526004016105e290611e44565b60405180910390fd5b82600260008773ffffffffffffffffffffffffffffffffffffffff1673ffffffffffffffffffffffffffffffffffffffff16815260200190815260200160002060008673ffffffffffffffffffffffffffffffffffffffff1673ffffffffffffffffffffffffffffffffffffffff16815260200190815260200160002060006101000a81548160ff0219169083151502179055508373ffffffffffffffffffffffffffffffffffffffff168573ffffffffffffffffffffffffffffffffffffffff167f0c2e6b1ab7b47daeb309d6dc42624fc533cf3bb0a6239a3ec5aacf3df7c9f287856040516106dc91906117be565b60405180910390a35050505050565b60018060003373ffffffffffffffffffffffffffffffffffffffff1673ffffffffffffffffffffffffffffffffffffffff168152602001908152602001600020541461076c576040517f08c379a000000000000000000000000000000000000000000000000000000000815260040161076390611dd8565b60405180910390fd5b81600073ffffffffffffffffffffffffffffffffffffffff168173ffffffffffffffffffffffffffffffffffffffff16036107dc576040517f08c379a00000000000000000000000000000000000000000000000000000000081526004016107d390611e44565b60405180910390fd5b600182101580156107ee575060038211155b61082d576040517f08c379a000000000000000000000000000000000000000000000000000000000815260040161082490611eb0565b60405180910390fd5b81600160008573ffffffffffffffffffffffffffffffffffffffff1673ffffffffffffffffffffffffffffffffffffffff168152602001908152602001600020819055508273ffffffffffffffffffffffffffffffffffffffff167fe2ac27c5c810aead8fa29780fdca1995888a2f0e6b8128a1316e116960b009f8836040516108b7919061190a565b60405180910390a2505050565b600081600073ffffffffffffffffffffffffffffffffffffffff168173ffffffffffffffffffffffffffffffffffffffff1603610936576040517f08c379a000000000000000000000000000000000000000000000000000000000815260040161092d90611e44565b60405180910390fd5b600160008473ffffffffffffffffffffffffffffffffffffffff1673ffffffffffffffffffffffffffffffffffffffff16815260200190815260200160002054915050919050565b600082600073ffffffffffffffffffffffffffffffffffffffff168173ffffffffffffffffffffffffffffffffffffffff16036109f0576040517f08c379a00000000000000000000000000000000000000000000000000000000081526004016109e790611e44565b60405180910390fd5b82600073ffffffffffffffffffffffffffffffffffffffff168173ffffffffffffffffffffffffffffffffffffffff1603610a60576040517f08c379a0000000000000000000000000000000000000000000000000000000008152600401610a5790611e44565b60405180910390fd5b8373ffffffffffffffffffffffffffffffffffffffff168573ffffffffffffffffffffffffffffffffffffffff161480610b205750600260008573ffffffffffffffffffffffffffffffffffffffff1673ffffffffffffffffffffffffffffffffffffffff16815260200190815260200160002060008673ffffffffffffffffffffffffffffffffffffffff1673ffffffffffffffffffffffffffffffffffffffff16815260200190815260200160002060009054906101000a900460ff165b80610b6a57506002600160008773ffffffffffffffffffffffffffffffffffffffff1673ffffffffffffffffffffffffffffffffffffffff16815260200190815260200160002054145b80610bb3575060018060008773ffffffffffffffffffffffffffffffffffffffff1673ffffffffffffffffffffffffffffffffffffffff16815260200190815260200160002054145b9250505092915050565b600081600073ffffffffffffffffffffffffffffffffffffffff168173ffffffffffffffffffffffffffffffffffffffff1603610c2f576040517f08c379a0000000000000000000000000000000000000000000000000000000008152600401610c2690611e44565b60405180910390fd5b828073ffffffffffffffffffffffffffffffffffffffff163373ffffffffffffffffffffffffffffffffffffffff161480610cf05750600260008273ffffffffffffffffffffffffffffffffffffffff1673ffffffffffffffffffffffffffffffffffffffff16815260200190815260200160002060003373ffffffffffffffffffffffffffffffffffffffff1673ffffffffffffffffffffffffffffffffffffffff16815260200190815260200160002060009054906101000a900460ff165b80610d3a57506002600160003373ffffffffffffffffffffffffffffffffffffffff1673ffffffffffffffffffffffffffffffffffffffff16815260200190815260200160002054145b80610d83575060018060003373ffffffffffffffffffffffffffffffffffffffff1673ffffffffffffffffffffffffffffffffffffffff16815260200190815260200160002054145b610dc2576040517f08c379a0000000000000000000000000000000000000000000000000000000008152600401610db990611f1c565b60405180910390fd5b6000808573ffffffffffffffffffffffffffffffffffffffff1673ffffffffffffffffffffffffffffffffffffffff1681526020019081526020016000208054905092505050919050565b60006020528160005260406000208181548110610e2957600080fd5b906000526020600020906002020160009150915050806000018054610e4d90611a95565b80601f0160208091040260200160405190810160405280929190818152602001828054610e7990611a95565b8015610ec65780601f10610e9b57610100808354040283529160200191610ec6565b820191906000526020600020905b815481529060010190602001808311610ea957829003601f168201915b5050505050908060010160009054906101000a900460ff16905082565b60016020528060005260406000206000915090505481565b6060600083600073ffffffffffffffffffffffffffffffffffffffff168173ffffffffffffffffffffffffffffffffffffffff1603610f6f576040517f08c379a0000000000000000000000000000000000000000000000000000000008152600401610f6690611e44565b60405180910390fd5b848073ffffffffffffffffffffffffffffffffffffffff163373ffffffffffffffffffffffffffffffffffffffff1614806110305750600260008273ffffffffffffffffffffffffffffffffffffffff1673ffffffffffffffffffffffffffffffffffffffff16815260200190815260200160002060003373ffffffffffffffffffffffffffffffffffffffff1673ffffffffffffffffffffffffffffffffffffffff16815260200190815260200160002060009054906101000a900460ff165b8061107a57506002600160003373ffffffffffffffffffffffffffffffffffffffff1673ffffffffffffffffffffffffffffffffffffffff16815260200190815260200160002054145b806110c3575060018060003373ffffffffffffffffffffffffffffffffffffffff1673ffffffffffffffffffffffffffffffffffffffff16815260200190815260200160002054145b611102576040517f08c379a00000000000000000000000000000000000000000000000000000000081526004016110f990611f1c565b60405180910390fd5b6000808773ffffffffffffffffffffffffffffffffffffffff1673ffffffffffffffffffffffffffffffffffffffff168152602001908152602001600020805490508510611185576040517f08c379a000000000000000000000000000000000000000000000000000000000815260040161117c90611f88565b60405180910390fd5b60008060008873ffffffffffffffffffffffffffffffffffffffff1673ffffffffffffffffffffffffffffffffffffffff16815260200190815260200160002086815481106111d7576111d6611fa8565b5b906000526020600020906002020160405180604001604052908160008201805461120090611a95565b80601f016020809104026020016040519081016040528092919081815260200182805461122c90611a95565b80156112795780601f1061124e57610100808354040283529160200191611279565b820191906000526020600020905b81548152906001019060200180831161125c57829003601f168201915b505050505081526020016001820160009054906101000a900460ff161515151581525050905080600001518160200151945094505050509250929050565b6002600160003373ffffffffffffffffffffffffffffffffffffffff1673ffffffffffffffffffffffffffffffffffffffff168152602001908152602001600020541480611343575060018060003373ffffffffffffffffffffffffffffffffffffffff1673ffffffffffffffffffffffffffffffffffffffff16815260200190815260200160002054145b611382576040517f08c379a000000000000000000000000000000000000000000000000000000000815260040161137990611a46565b60405180910390fd5b81600073ffffffffffffffffffffffffffffffffffffffff168173ffffffffffffffffffffffffffffffffffffffff16036113f2576040517f08c379a00000000000000000000000000000000000000000000000000000000081526004016113e990611e44565b60405180910390fd5b6000808473ffffffffffffffffffffffffffffffffffffffff1673ffffffffffffffffffffffffffffffffffffffff168152602001908152602001600020805490508210611475576040517f08c379a000000000000000000000000000000000000000000000000000000000815260040161146c90612023565b60405180910390fd5b60016000808573ffffffffffffffffffffffffffffffffffffffff1673ffffffffffffffffffffffffffffffffffffffff16815260200190815260200160002083815481106114c7576114c6611fa8565b5b906000526020600020906002020160010160006101000a81548160ff0219169083151502179055503373ffffffffffffffffffffffffffffffffffffffff16828473ffffffffffffffffffffffffffffffffffffffff167f3243056bb7f8a85759e370231037be0bbbb70e75b7a75d342cfbc1994b03ac9960405160405180910390a4505050565b6000604051905090565b600080fd5b600080fd5b600073ffffffffffffffffffffffffffffffffffffffff82169050919050565b600061158e82611563565b9050919050565b61159e81611583565b81146115a957600080fd5b50565b6000813590506115bb81611595565b92915050565b600080fd5b600080fd5b6000601f19601f8301169050919050565b7f4e487b7100000000000000000000000000000000000000000000000000000000600052604160045260246000fd5b611614826115cb565b810181811067ffffffffffffffff82111715611633576116326115dc565b5b80604052505050565b600061164661154f565b9050611652828261160b565b919050565b600067ffffffffffffffff821115611672576116716115dc565b5b61167b826115cb565b9050602081019050919050565b82818337600083830152505050565b60006116aa6116a584611657565b61163c565b9050828152602081018484840111156116c6576116c56115c6565b5b6116d1848285611688565b509392505050565b600082601f8301126116ee576116ed6115c1565b5b81356116fe848260208601611697565b91505092915050565b6000806040838503121561171e5761171d611559565b5b600061172c858286016115ac565b925050602083013567ffffffffffffffff81111561174d5761174c61155e565b5b611759858286016116d9565b9150509250929050565b6000806040838503121561177a57611779611559565b5b6000611788858286016115ac565b9250506020611799858286016115ac565b9150509250929050565b60008115159050919050565b6117b8816117a3565b82525050565b60006020820190506117d360008301846117af565b92915050565b6117e2816117a3565b81146117ed57600080fd5b50565b6000813590506117ff816117d9565b92915050565b60008060006060848603121561181e5761181d611559565b5b600061182c868287016115ac565b935050602061183d868287016115ac565b925050604061184e868287016117f0565b9150509250925092565b6000819050919050565b61186b81611858565b811461187657600080fd5b50565b60008135905061188881611862565b92915050565b600080604083850312156118a5576118a4611559565b5b60006118b3858286016115ac565b92505060206118c485828601611879565b9150509250929050565b6000602082840312156118e4576118e3611559565b5b60006118f2848285016115ac565b91505092915050565b61190481611858565b82525050565b600060208201905061191f60008301846118fb565b92915050565b600081519050919050565b600082825260208201905092915050565b60005b8381101561195f578082015181840152602081019050611944565b60008484015250505050565b600061197682611925565b6119808185611930565b9350611990818560208601611941565b611999816115cb565b840191505092915050565b600060408201905081810360008301526119be818561196b565b90506119cd60208301846117af565b9392505050565b7f4f6e6c7920646f63746f72206f722061646d696e2063616e20706572666f726d60008201527f207468697320616374696f6e0000000000000000000000000000000000000000602082015250565b6000611a30602c83611930565b9150611a3b826119d4565b604082019050919050565b60006020820190508181036000830152611a5f81611a23565b9050919050565b7f4e487b7100000000000000000000000000000000000000000000000000000000600052602260045260246000fd5b60006002820490506001821680611aad57607f821691505b602082108103611ac057611abf611a66565b5b50919050565b60008190508160005260206000209050919050565b60006020601f8301049050919050565b600082821b905092915050565b600060088302611b287fffffffffffffffffffffffffffffffffffffffffffffffffffffffffffffffff82611aeb565b611b328683611aeb565b95508019841693508086168417925050509392505050565b6000819050919050565b6000611b6f611b6a611b6584611858565b611b4a565b611858565b9050919050565b6000819050919050565b611b8983611b54565b611b9d611b9582611b76565b848454611af8565b825550505050565b600090565b611bb2611ba5565b611bbd818484611b80565b505050565b5b81811015611be157611bd6600082611baa565b600181019050611bc3565b5050565b601f821115611c2657611bf781611ac6565b611c0084611adb565b81016020851015611c0f578190505b611c23611c1b85611adb565b830182611bc2565b50505b505050565b600082821c905092915050565b6000611c4960001984600802611c2b565b1980831691505092915050565b6000611c628383611c38565b9150826002028217905092915050565b611c7b82611925565b67ffffffffffffffff811115611c9457611c936115dc565b5b611c9e8254611a95565b611ca9828285611be5565b600060209050601f831160018114611cdc5760008415611cca578287015190505b611cd48582611c56565b865550611d3c565b601f198416611cea86611ac6565b60005b82811015611d1257848901518255600182019150602085019450602081019050611ced565b86831015611d2f5784890151611d2b601f891682611c38565b8355505b6001600288020188555050505b505050505050565b60006020820190508181036000830152611d5e818461196b565b905092915050565b7f4f6e6c792061646d696e2063616e20706572666f726d2074686973206163746960008201527f6f6e000000000000000000000000000000000000000000000000000000000000602082015250565b6000611dc2602283611930565b9150611dcd82611d66565b604082019050919050565b60006020820190508181036000830152611df181611db5565b9050919050565b7f496e76616c696420616464726573730000000000000000000000000000000000600082015250565b6000611e2e600f83611930565b9150611e3982611df8565b602082019050919050565b60006020820190508181036000830152611e5d81611e21565b9050919050565b7f496e76616c696420726f6c652049440000000000000000000000000000000000600082015250565b6000611e9a600f83611930565b9150611ea582611e64565b602082019050919050565b60006020820190508181036000830152611ec981611e8d565b9050919050565b7f4e6f2061636365737320746f207468657365207265636f726473000000000000600082015250565b6000611f06601a83611930565b9150611f1182611ed0565b602082019050919050565b60006020820190508181036000830152611f3581611ef9565b9050919050565b7f496e646578206f7574206f6620626f756e647300000000000000000000000000600082015250565b6000611f72601383611930565b9150611f7d82611f3c565b602082019050919050565b60006020820190508181036000830152611fa181611f65565b9050919050565b7f4e487b7100000000000000000000000000000000000000000000000000000000600052603260045260246000fd5b7f5265636f726420646f6573206e6f742065786973740000000000000000000000600082015250565b600061200d601583611930565b915061201882611fd7565b602082019050919050565b6000602082019050818103600083015261203c81612000565b905091905056fea2646970667358221220cf7eda1c3b26330f32cabf95ce2f8d9334860035f5bea80e19925745ec38354f64736f6c63430008140033",
  "linkReferences": {},
  "deployedLinkReferences": {}
}