{
  "_format": "hh-sol-artifact-1",
  "contractName": "PatientRecords",
  "sourceName": "contracts/PatientRecords.sol",
  "abi": [
    {
      "inputs": [],
      "stateMutability": "nonpayable",
      "type": "constructor"
    },
    {
      "anonymous": false,
      "inputs": [
        {
          "indexed": true,
          "internalType": "address",
          "name": "patient",
          "type": "address"
        },
        {
          "indexed": true,
          "internalType": "address",
          "name": "grantee",
          "type": "address"
        }
      ],
      "name": "AccessGranted",
      "type": "event"
    },
    {
      "anonymous": false,
      "inputs": [
        {
          "indexed": true,
          "internalType": "address",
          "name": "patient",
          "type": "address"
        },
        {
          "indexed": true,
          "internalType": "address",
          "name": "grantee",
          "type": "address"
        }
      ],
      "name": "AccessRevoked",
      "type": "event"
    },
    {
      "anonymous": false,
      "inputs": [
        {
          "indexed": false,
          "internalType": "string",
          "name": "message",
          "type": "string"
        }
      ],
      "name": "Alert",
      "type": "event"
    },
    {
      "anonymous": false,
      "inputs": [
        {
          "indexed": true,
          "internalType": "address",
          "name": "patient",
          "type": "address"
        },
        {
          "indexed": true,
          "internalType": "address",
          "name": "doctor",
          "type": "address"
        },
        {
          "indexed": false,
          "internalType": "string",
          "name": "dataHash",
          "type": "string"
        }
      ],
      "name": "RecordUploaded",
      "type": "event"
    },
    {
      "anonymous": false,
      "inputs": [
        {
          "indexed": true,
          "internalType": "address",
          "name": "patient",
          "type": "address"
        },
        {
          "indexed": false,
          "internalType": "uint256",
          "name": "recordIndex",
          "type": "uint256"
        }
      ],
      "name": "RecordVerified",
      "type": "event"
    },
    {
      "inputs": [
        {
          "internalType": "address",
          "name": "",
          "type": "address"
        },
        {
          "internalType": "address",
          "name": "",
          "type": "address"
        }
      ],
      "name": "access",
      "outputs": [
        {
          "internalType": "bool",
          "name": "",
          "type": "bool"
        }
      ],
      "stateMutability": "view",
      "type": "function"
    },
    {
      "inputs": [],
      "name": "admin",
      "outputs": [
        {
          "internalType": "address",
          "name": "",
          "type": "address"
        }
      ],
      "stateMutability": "view",
      "type": "function"
    },
    {
      "inputs": [
        {
          "internalType": "address",
          "name": "user",
          "type": "address"
        },
        {
          "internalType": "enum PatientRecords.Role",
          "name": "role",
          "type": "uint8"
        }
      ],
      "name": "assignRole",
      "outputs": [],
      "stateMutability": "nonpayable",
      "type": "function"
    },
    {
      "inputs": [
        {
          "internalType": "address",
          "name": "patient",
          "type": "address"
        },
        {
          "internalType": "address",
          "name": "grantee",
          "type": "address"
        },
        {
          "internalType": "bool",
          "name": "grant",
          "type": "bool"
        }
      ],
      "name": "overrideAccess",
      "outputs": [],
      "stateMutability": "nonpayable",
      "type": "function"
    },
    {
      "inputs": [
        {
          "internalType": "address",
          "name": "",
          "type": "address"
        },
        {
          "internalType": "uint256",
          "name": "",
          "type": "uint256"
        }
      ],
      "name": "records",
      "outputs": [
        {
          "internalType": "address",
          "name": "uploader",
          "type": "address"
        },
        {
          "internalType": "string",
          "name": "dataHash",
          "type": "string"
        },
        {
          "internalType": "bool",
          "name": "verified",
          "type": "bool"
        }
      ],
      "stateMutability": "view",
      "type": "function"
    },
    {
      "inputs": [
        {
          "internalType": "address",
          "name": "",
          "type": "address"
        }
      ],
      "name": "roles",
      "outputs": [
        {
          "internalType": "enum PatientRecords.Role",
          "name": "",
          "type": "uint8"
        }
      ],
      "stateMutability": "view",
      "type": "function"
    },
    {
      "inputs": [
        {
          "internalType": "address",
          "name": "patient",
          "type": "address"
        },
        {
          "internalType": "string",
          "name": "dataHash",
          "type": "string"
        }
      ],
      "name": "uploadRecord",
      "outputs": [],
      "stateMutability": "nonpayable",
      "type": "function"
    },
    {
      "inputs": [
        {
          "internalType": "address",
          "name": "patient",
          "type": "address"
        },
        {
          "internalType": "uint256",
          "name": "index",
          "type": "uint256"
        }
      ],
      "name": "verifyRecord",
      "outputs": [],
      "stateMutability": "nonpayable",
      "type": "function"
    },
    {
      "inputs": [
        {
          "internalType": "address",
          "name": "patient",
          "type": "address"
        }
      ],
      "name": "viewRecords",
      "outputs": [
        {
          "components": [
            {
              "internalType": "address",
              "name": "uploader",
              "type": "address"
            },
            {
              "internalType": "string",
              "name": "dataHash",
              "type": "string"
            },
            {
              "internalType": "bool",
              "name": "verified",
              "type": "bool"
            }
          ],
          "internalType": "struct PatientRecords.Record[]",
          "name": "",
          "type": "tuple[]"
        }
      ],
      "stateMutability": "view",
      "type": "function"
    }
  ],
  "bytecode": "0x608060405234801561001057600080fd5b5033600360006101000a81548173ffffffffffffffffffffffffffffffffffffffff021916908373ffffffffffffffffffffffffffffffffffffffff1602179055506003600080600360009054906101000a900473ffffffffffffffffffffffffffffffffffffffff1673ffffffffffffffffffffffffffffffffffffffff1673ffffffffffffffffffffffffffffffffffffffff16815260200190815260200160002060006101000a81548160ff021916908360038111156100d6576100d56100e0565b5b021790555061010f565b7f4e487b7100000000000000000000000000000000000000000000000000000000600052602160045260246000fd5b611b498061011e6000396000f3fe608060405234801561001057600080fd5b50600436106100935760003560e01c80637a519672116100665780637a5196721461011c57806382a6c0ac1461014c578063993746421461017e578063bbb73739146101ae578063f851a440146101ca57610093565b8063026e09cd1461009857806306414577146100b4578063630a195b146100d05780636aad384b146100ec575b600080fd5b6100b260048036038101906100ad9190611030565b6101e8565b005b6100ce60048036038101906100c991906110c4565b610549565b005b6100ea60048036038101906100e5919061113c565b610732565b005b6101066004803603810190610101919061117c565b61082c565b60405161011391906111cb565b60405180910390f35b610136600480360381019061013191906111e6565b61085b565b60405161014391906113c2565b60405180910390f35b6101666004803603810190610161919061141a565b610b55565b604051610175939291906114b3565b60405180910390f35b610198600480360381019061019391906111e6565b610c51565b6040516101a59190611568565b60405180910390f35b6101c860048036038101906101c3919061141a565b610c71565b005b6101d2610e52565b6040516101df9190611583565b60405180910390f35b600260038111156101fc576101fb6114f1565b5b6000803373ffffffffffffffffffffffffffffffffffffffff1673ffffffffffffffffffffffffffffffffffffffff16815260200190815260200160002060009054906101000a900460ff16600381111561025a576102596114f1565b5b14806102d45750600380811115610274576102736114f1565b5b6000803373ffffffffffffffffffffffffffffffffffffffff1673ffffffffffffffffffffffffffffffffffffffff16815260200190815260200160002060009054906101000a900460ff1660038111156102d2576102d16114f1565b5b145b610313576040517f08c379a000000000000000000000000000000000000000000000000000000000815260040161030a906115ea565b60405180910390fd5b60016003811115610327576103266114f1565b5b6000808473ffffffffffffffffffffffffffffffffffffffff1673ffffffffffffffffffffffffffffffffffffffff16815260200190815260200160002060009054906101000a900460ff166003811115610385576103846114f1565b5b146103c5576040517f08c379a00000000000000000000000000000000000000000000000000000000081526004016103bc90611656565b60405180910390fd5b600260008373ffffffffffffffffffffffffffffffffffffffff1673ffffffffffffffffffffffffffffffffffffffff16815260200190815260200160002060405180606001604052803373ffffffffffffffffffffffffffffffffffffffff16815260200183815260200160001515815250908060018154018082558091505060019003906000526020600020906003020160009091909190915060008201518160000160006101000a81548173ffffffffffffffffffffffffffffffffffffffff021916908373ffffffffffffffffffffffffffffffffffffffff16021790555060208201518160010190816104bd9190611882565b5060408201518160020160006101000a81548160ff02191690831515021790555050503373ffffffffffffffffffffffffffffffffffffffff168273ffffffffffffffffffffffffffffffffffffffff167fe6d615acf54736ffca7532772615005f30a970cf028f6ea39b7ed223099535608360405161053d9190611954565b60405180910390a35050565b600360009054906101000a900473ffffffffffffffffffffffffffffffffffffffff1673ffffffffffffffffffffffffffffffffffffffff163373ffffffffffffffffffffffffffffffffffffffff16146105d9576040517f08c379a00000000000000000000000000000000000000000000000000000000081526004016105d0906119c2565b60405180910390fd5b80600160008573ffffffffffffffffffffffffffffffffffffffff1673ffffffffffffffffffffffffffffffffffffffff16815260200190815260200160002060008473ffffffffffffffffffffffffffffffffffffffff1673ffffffffffffffffffffffffffffffffffffffff16815260200190815260200160002060006101000a81548160ff02191690831515021790555080156106d2578173ffffffffffffffffffffffffffffffffffffffff168373ffffffffffffffffffffffffffffffffffffffff167f9f520b3bfc56d06f7065d10b4683b3f57ac8895d5026cd176dee95ce1454cb8d60405160405180910390a361072d565b8173ffffffffffffffffffffffffffffffffffffffff168373ffffffffffffffffffffffffffffffffffffffff167f825c8be24eb0df19500f63e86c29e7d0d951e73056b889b891d85e40938d9b6e60405160405180910390a35b505050565b600360009054906101000a900473ffffffffffffffffffffffffffffffffffffffff1673ffffffffffffffffffffffffffffffffffffffff163373ffffffffffffffffffffffffffffffffffffffff16146107c2576040517f08c379a00000000000000000000000000000000000000000000000000000000081526004016107b9906119c2565b60405180910390fd5b806000808473ffffffffffffffffffffffffffffffffffffffff1673ffffffffffffffffffffffffffffffffffffffff16815260200190815260200160002060006101000a81548160ff02191690836003811115610823576108226114f1565b5b02179055505050565b60016020528160005260406000206020528060005260406000206000915091509054906101000a900460ff1681565b6060818073ffffffffffffffffffffffffffffffffffffffff163373ffffffffffffffffffffffffffffffffffffffff16148061091e5750600160008273ffffffffffffffffffffffffffffffffffffffff1673ffffffffffffffffffffffffffffffffffffffff16815260200190815260200160002060003373ffffffffffffffffffffffffffffffffffffffff1673ffffffffffffffffffffffffffffffffffffffff16815260200190815260200160002060009054906101000a900460ff165b806109765750600360009054906101000a900473ffffffffffffffffffffffffffffffffffffffff1673ffffffffffffffffffffffffffffffffffffffff163373ffffffffffffffffffffffffffffffffffffffff16145b6109b5576040517f08c379a00000000000000000000000000000000000000000000000000000000081526004016109ac90611a2e565b60405180910390fd5b600260008473ffffffffffffffffffffffffffffffffffffffff1673ffffffffffffffffffffffffffffffffffffffff168152602001908152602001600020805480602002602001604051908101604052809291908181526020016000905b82821015610b4957838290600052602060002090600302016040518060600160405290816000820160009054906101000a900473ffffffffffffffffffffffffffffffffffffffff1673ffffffffffffffffffffffffffffffffffffffff1673ffffffffffffffffffffffffffffffffffffffff168152602001600182018054610a9d906116a5565b80601f0160208091040260200160405190810160405280929190818152602001828054610ac9906116a5565b8015610b165780601f10610aeb57610100808354040283529160200191610b16565b820191906000526020600020905b815481529060010190602001808311610af957829003601f168201915b505050505081526020016002820160009054906101000a900460ff16151515158152505081526020019060010190610a14565b50505050915050919050565b60026020528160005260406000208181548110610b7157600080fd5b9060005260206000209060030201600091509150508060000160009054906101000a900473ffffffffffffffffffffffffffffffffffffffff1690806001018054610bbb906116a5565b80601f0160208091040260200160405190810160405280929190818152602001828054610be7906116a5565b8015610c345780601f10610c0957610100808354040283529160200191610c34565b820191906000526020600020905b815481529060010190602001808311610c1757829003601f168201915b5050505050908060020160009054906101000a900460ff16905083565b60006020528060005260406000206000915054906101000a900460ff1681565b600360009054906101000a900473ffffffffffffffffffffffffffffffffffffffff1673ffffffffffffffffffffffffffffffffffffffff163373ffffffffffffffffffffffffffffffffffffffff1614610d01576040517f08c379a0000000000000000000000000000000000000000000000000000000008152600401610cf8906119c2565b60405180910390fd5b600260008373ffffffffffffffffffffffffffffffffffffffff1673ffffffffffffffffffffffffffffffffffffffff168152602001908152602001600020805490508110610d85576040517f08c379a0000000000000000000000000000000000000000000000000000000008152600401610d7c90611a9a565b60405180910390fd5b6001600260008473ffffffffffffffffffffffffffffffffffffffff1673ffffffffffffffffffffffffffffffffffffffff1681526020019081526020016000208281548110610dd857610dd7611aba565b5b906000526020600020906003020160020160006101000a81548160ff0219169083151502179055508173ffffffffffffffffffffffffffffffffffffffff167fc07ea9174f588d2863ce9946e1817b8cf475a1dc32de846fb4e0e88411d7a9f082604051610e469190611af8565b60405180910390a25050565b600360009054906101000a900473ffffffffffffffffffffffffffffffffffffffff1681565b6000604051905090565b600080fd5b600080fd5b600073ffffffffffffffffffffffffffffffffffffffff82169050919050565b6000610eb782610e8c565b9050919050565b610ec781610eac565b8114610ed257600080fd5b50565b600081359050610ee481610ebe565b92915050565b600080fd5b600080fd5b6000601f19601f8301169050919050565b7f4e487b7100000000000000000000000000000000000000000000000000000000600052604160045260246000fd5b610f3d82610ef4565b810181811067ffffffffffffffff82111715610f5c57610f5b610f05565b5b80604052505050565b6000610f6f610e78565b9050610f7b8282610f34565b919050565b600067ffffffffffffffff821115610f9b57610f9a610f05565b5b610fa482610ef4565b9050602081019050919050565b82818337600083830152505050565b6000610fd3610fce84610f80565b610f65565b905082815260208101848484011115610fef57610fee610eef565b5b610ffa848285610fb1565b509392505050565b600082601f83011261101757611016610eea565b5b8135611027848260208601610fc0565b91505092915050565b6000806040838503121561104757611046610e82565b5b600061105585828601610ed5565b925050602083013567ffffffffffffffff81111561107657611075610e87565b5b61108285828601611002565b9150509250929050565b60008115159050919050565b6110a18161108c565b81146110ac57600080fd5b50565b6000813590506110be81611098565b92915050565b6000806000606084860312156110dd576110dc610e82565b5b60006110eb86828701610ed5565b93505060206110fc86828701610ed5565b925050604061110d868287016110af565b9150509250925092565b6004811061112457600080fd5b50565b60008135905061113681611117565b92915050565b6000806040838503121561115357611152610e82565b5b600061116185828601610ed5565b925050602061117285828601611127565b9150509250929050565b6000806040838503121561119357611192610e82565b5b60006111a185828601610ed5565b92505060206111b285828601610ed5565b9150509250929050565b6111c58161108c565b82525050565b60006020820190506111e060008301846111bc565b92915050565b6000602082840312156111fc576111fb610e82565b5b600061120a84828501610ed5565b91505092915050565b600081519050919050565b600082825260208201905092915050565b6000819050602082019050919050565b61124881610eac565b82525050565b600081519050919050565b600082825260208201905092915050565b60005b8381101561128857808201518184015260208101905061126d565b60008484015250505050565b600061129f8261124e565b6112a98185611259565b93506112b981856020860161126a565b6112c281610ef4565b840191505092915050565b6112d68161108c565b82525050565b60006060830160008301516112f4600086018261123f565b506020830151848203602086015261130c8282611294565b915050604083015161132160408601826112cd565b508091505092915050565b600061133883836112dc565b905092915050565b6000602082019050919050565b600061135882611213565b611362818561121e565b9350836020820285016113748561122f565b8060005b858110156113b05784840389528151611391858261132c565b945061139c83611340565b925060208a01995050600181019050611378565b50829750879550505050505092915050565b600060208201905081810360008301526113dc818461134d565b905092915050565b6000819050919050565b6113f7816113e4565b811461140257600080fd5b50565b600081359050611414816113ee565b92915050565b6000806040838503121561143157611430610e82565b5b600061143f85828601610ed5565b925050602061145085828601611405565b9150509250929050565b61146381610eac565b82525050565b600082825260208201905092915050565b60006114858261124e565b61148f8185611469565b935061149f81856020860161126a565b6114a881610ef4565b840191505092915050565b60006060820190506114c8600083018661145a565b81810360208301526114da818561147a565b90506114e960408301846111bc565b949350505050565b7f4e487b7100000000000000000000000000000000000000000000000000000000600052602160045260246000fd5b60048110611531576115306114f1565b5b50565b600081905061154282611520565b919050565b600061155282611534565b9050919050565b61156281611547565b82525050565b600060208201905061157d6000830184611559565b92915050565b6000602082019050611598600083018461145a565b92915050565b7f4e6f7420646f63746f72206f722061646d696e00000000000000000000000000600082015250565b60006115d4601383611469565b91506115df8261159e565b602082019050919050565b60006020820190508181036000830152611603816115c7565b9050919050565b7f4e6f7420612070617469656e7400000000000000000000000000000000000000600082015250565b6000611640600d83611469565b915061164b8261160a565b602082019050919050565b6000602082019050818103600083015261166f81611633565b9050919050565b7f4e487b7100000000000000000000000000000000000000000000000000000000600052602260045260246000fd5b600060028204905060018216806116bd57607f821691505b6020821081036116d0576116cf611676565b5b50919050565b60008190508160005260206000209050919050565b60006020601f8301049050919050565b600082821b905092915050565b6000600883026117387fffffffffffffffffffffffffffffffffffffffffffffffffffffffffffffffff826116fb565b61174286836116fb565b95508019841693508086168417925050509392505050565b6000819050919050565b600061177f61177a611775846113e4565b61175a565b6113e4565b9050919050565b6000819050919050565b61179983611764565b6117ad6117a582611786565b848454611708565b825550505050565b600090565b6117c26117b5565b6117cd818484611790565b505050565b5b818110156117f1576117e66000826117ba565b6001810190506117d3565b5050565b601f82111561183657611807816116d6565b611810846116eb565b8101602085101561181f578190505b61183361182b856116eb565b8301826117d2565b50505b505050565b600082821c905092915050565b60006118596000198460080261183b565b1980831691505092915050565b60006118728383611848565b9150826002028217905092915050565b61188b8261124e565b67ffffffffffffffff8111156118a4576118a3610f05565b5b6118ae82546116a5565b6118b98282856117f5565b600060209050601f8311600181146118ec57600084156118da578287015190505b6118e48582611866565b86555061194c565b601f1984166118fa866116d6565b60005b82811015611922578489015182556001820191506020850194506020810190506118fd565b8683101561193f578489015161193b601f891682611848565b8355505b6001600288020188555050505b505050505050565b6000602082019050818103600083015261196e818461147a565b905092915050565b7f4e6f742061646d696e0000000000000000000000000000000000000000000000600082015250565b60006119ac600983611469565b91506119b782611976565b602082019050919050565b600060208201905081810360008301526119db8161199f565b9050919050565b7f4e6f206163636573730000000000000000000000000000000000000000000000600082015250565b6000611a18600983611469565b9150611a23826119e2565b602082019050919050565b60006020820190508181036000830152611a4781611a0b565b9050919050565b7f496e76616c696420696e64657800000000000000000000000000000000000000600082015250565b6000611a84600d83611469565b9150611a8f82611a4e565b602082019050919050565b60006020820190508181036000830152611ab381611a77565b9050919050565b7f4e487b7100000000000000000000000000000000000000000000000000000000600052603260045260246000fd5b611af2816113e4565b82525050565b6000602082019050611b0d6000830184611ae9565b9291505056fea2646970667358221220a4b1c6cf0434aa0740796e2367509352f0e8ba48308ec155736bdac439e13a8564736f6c63430008140033",
  "linkReferences": {},
  "deployedLinkReferences": {}
}